:020000040800F2
:10000000280C00209D010008A5010008A701000898
:10001000A9010008AB010008AD01000800000000C4
:10002000000000000000000000000000AF01000818
:10003000B101000800000000B3010008B50100088C
:10004000B7010008B7010008B7010008B7010008B0
:10005000B7010008B7010008B7010008B7010008A0
:10006000B7010008B7010008B7010008B701000890
:10007000B7010008B7010008B7010008B701000880
:10008000B7010008B7010008B7010008B701000870
:10009000B7010008B7010008B7010008B701000860
:1000A000B7010008B7010008B7010008B701000850
:1000B000B7010008B7010008B7010008B701000840
:1000C000B7010008B7010008B7010008B701000830
:1000D000B7010008B7010008B7010008B701000820
:1000E000B7010008B7010008B7010008B701000810
:1000F000B7010008B7010008B7010008B701000800
:10010000B7010008B7010008B7010008B7010008EF
:10011000B7010008B7010008B7010008B7010008DF
:10012000B7010008B7010008B7010008B7010008CF
:10013000B7010008B7010008B7010008B7010008BF
:10014000B7010008B7010008B7010008B7010008AF
:10015000B7010008B7010008B7010008B70100089F
:10016000B7010008B7010008B7010008B70100088F
:10017000B7010008B7010008B7010008B70100087F
:10018000B7010008B7010008DFF80CD000F018F83C
:100190000048004731160008280C00200648804718
:1001A00006480047FEE7FEE7FEE7FEE7FEE7FEE75C
:1001B000FEE7FEE7FEE7FEE7950F0008890100086D
:1001C000064C074D06E0E06840F0010394E80700A4
:1001D00098471034AC42F6D3FFF7DAFF7C1B0008D7
:1001E0009C1B000810B5084C48B1012803D0E3213E
:1001F00006A001F076F9206840F4806002E02068F3
:1002000020F48060206010BD003C02404C696272A6
:1002100061726965735C53544D3332463478785F4C
:100220005374645065726970685F44726976657270
:100230005C7372635C73746D3332663478785F66B6
:100240006C6173682E63000070B50D4604004FF0BA
:1002500000061AD0082C18D0102C16D0182C14D048
:10026000202C12D0282C10D0302C0ED0382C0CD0B2
:10027000402C0AD0482C08D0502C06D0582C04D042
:1002800040F25B111DA001F02CF965B1012D31D0B8
:10029000022D2CD0032D04D04FF4AE7117A001F025
:1002A00020F94FF4407600F01BF908281ED1224DAA
:1002B000286820F440702860286830432860286847
:1002C00020F0F8002860286844F002010843286004
:1002D000286840F48030286000F002F9296821F095
:1002E00002012960296821F0F801296070BD4FF4EE
:1002F0000076D8E74FF48076D5E700004C6962724B
:1003000061726965735C53544D3332463478785F5B
:100310005374645065726970685F4472697665727F
:100320005C7372635C73746D3332663478785F66C5
:100330006C6173682E630000103C02400B4908207A
:100340000A68D20301D5012070470A68D20601D598
:10035000052070470A6812F0EF0F01D006207047A1
:1003600009688907FBD50720704700000C3C024054
:100370000248016841F0004101607047103C0240B2
:1003800070B50E4605461349A0F1006088420AD3B5
:10039000114840F20F212844884204D340F2422100
:1003A0000EA001F09EF800F09BF8082811D11A4C1D
:1003B000206820F44070206020682060206840F0B1
:1003C000010020602E7000F08BF8216821F00101FF
:1003D000216070BDFFFF0F00008800E04C69627271
:1003E00061726965735C53544D3332463478785F7B
:1003F0005374645065726970685F4472697665729F
:100400005C7372635C73746D3332663478785F66E4
:100410006C6173682E630000103C024070B50E469C
:1004200005461449A0F1006088420AD3124840F200
:100430000F212844884204D34FF4FB710FA001F030
:1004400050F800F04DF8082813D11B4C206820F418
:1004500040702060206840F400702060206840F008
:10046000010020602E6000F03BF8216821F00101BE
:10047000216070BDFFFF0F00008800E04C696272D0
:1004800061726965735C53544D3332463478785FDA
:100490005374645065726970685F447269766572FE
:1004A0005C7372635C73746D3332663478785F6644
:1004B0006C6173682E630000103C024005480068C0
:1004C000002805DA034804490C380160034901603B
:1004D00070470000103C024023016745AB89EFCD17
:1004E00008B508208DF80000FFF728FF8DF8000000
:1004F0009DF800000128F7D09DF8000008BD00001D
:100500002DE9F05F0446484800270D4684421BD081
:100510004648844218D04648844215D04548844213
:1005200012D0454884420FD0444884420CD04448FD
:10053000844209D04348844206D04348844203D0D1
:10054000BB2142A000F0CDFF286818B9BC213FA014
:1005500000F0C7FF287948B1012807D0022805D04C
:10056000032803D0BD2139A000F0BBFFE87938B1E2
:10057000012805D0022803D0BE2134A000F0B1FF2D
:100580004FF0010A4FF0030B28680AFA07F63040D3
:10059000B04243D1226879000BFA01F822EA08023E
:1005A000894622602879216800FA09F00843206012
:1005B0002879012801D0022826D1687948B101287C
:1005C00007D0022805D0032803D0D0211FA000F0B7
:1005D00088FFA06820EA0800A0606879A16800FA96
:1005E00009F00843A060A87928B1012803D0D721D9
:1005F00016A000F076FF6068B04360606068A9797B
:10060000B94089B208436060E06820EA0800E06011
:10061000E879E16800FA09F00843E0607F1C102FD8
:10062000B2D3BDE8F09F0000000002400004024089
:1006300000080240000C024000100240001402407A
:1006400000180240001C0240002002404C69627207
:1006500061726965735C53544D3332463478785F08
:100660005374645065726970685F4472697665722C
:100670005C7372635C73746D3332663478785F6771
:1006800070696F2E6300000070B506463B48144643
:100690000D4686421CD03A48864219D039488642D7
:1006A00016D03948864213D03848864210D0384890
:1006B00086420DD0374886420AD03748864207D056
:1006C0003648864204D040F2172135A000F009FFD9
:1006D00015B3012D20D0022D1ED0032D1CD0042DCA
:1006E0001AD0052D18D0062D16D0072D14D0082DA0
:1006F00012D0092D10D00A2D0ED00B2D0CD00C2DA0
:100700000AD00D2D08D00E2D06D00F2D04D04FF499
:10071000067123A000F0E5FE04B3092C1ED0012CC5
:100720001CD0022C1AD0032C18D0042C16D0052C67
:1007300014D0062C12D0072C10D0082C0ED00A2C66
:100740000CD00B2C0AD00C2C08D00D2C06D00F2C62
:1007500004D040F2192112A000F0C3FE6807C10EB8
:100760008C40E80806EB8000026A0F238B409A4316
:100770000262016A2143016270BD00000000024074
:100780000004024000080240000C02400010024039
:100790000014024000180240001C024000200240E9
:1007A0004C69627261726965735C53544D333246B1
:1007B0003478785F5374645065726970685F44720E
:1007C000697665725C7372635C73746D3332663420
:1007D00078785F6770696F2E6300000070B505461A
:1007E0002A4800260C4685421CD02948854219D04B
:1007F0002848854216D02848854213D0274885428C
:1008000010D0274885420DD0264885420AD0264878
:10081000854207D02548854204D04FF4987124A022
:1008200000F05FFE012C2AD0022C28D0042C26D008
:10083000082C24D0102C22D0202C20D0402C1ED0CC
:10084000802C1CD0B4F5807F19D0B4F5007F16D071
:10085000B4F5806F13D0B4F5006F10D0B4F5805F9D
:100860000DD0B4F5005F0AD0B4F5804F07D0B4F5D1
:10087000004F04D040F231110DA000F032FE286983
:10088000204200D00126304670BD0000000002402A
:100890000004024000080240000C02400010024028
:1008A0000014024000180240001C024000200240D8
:1008B0004C69627261726965735C53544D333246A0
:1008C0003478785F5374645065726970685F4472FD
:1008D000697665725C7372635C73746D333266340F
:1008E00078785F6770696F2E6300000070B504460A
:1008F00014480D4684421CD01348844219D0134832
:10090000844216D01248844213D01248844210D038
:10091000114884420DD0114884420AD010488442C4
:1009200007D01048844204D04FF4C9710EA000F0E3
:10093000D8FD25B940F293110BA000F0D2FD6583DC
:1009400070BD0000000002400004024000080240A8
:10095000000C024000100240001402400018024047
:10096000001C0240002002404C696272617269659D
:10097000735C53544D3332463478785F537464500B
:1009800065726970685F4472697665725C737263E0
:100990005C73746D3332663478785F6770696F2E7C
:1009A0006300000070B5044614480D4684421CD014
:1009B0001348844219D01348844216D01248844206
:1009C00013D01248844210D0114884420DD01148EF
:1009D00084420AD01048844207D01048844204D090
:1009E00040F27F110EA000F07CFD25B94FF4C071DC
:1009F0000BA000F076FD258370BD000000000240D2
:100A00000004024000080240000C024000100240B6
:100A10000014024000180240001C02400020024066
:100A20004C69627261726965735C53544D3332462E
:100A30003478785F5374645065726970685F44728B
:100A4000697665725C7372635C73746D333266349D
:100A500078785F6770696F2E63000000094801684D
:100A6000094A1140B1F1005F0AD14168074AD160DB
:100A70009160006880F30888012080F3108808479F
:100A800070470000008000080000FE2F00000020DA
:100A900070B504460C480E46044200D124B94FF408
:100AA00088610AA000F01DFD174D4EB1012E04D043
:100AB00040F2424105A000F014FD2868204301E007
:100AC0002868A043286070BD00EE8B814C6962727B
:100AD00061726965735C53544D3332463478785F84
:100AE0005374645065726970685F447269766572A8
:100AF0005C7372635C73746D3332663478785F72E2
:100B000063632E63000000003038024070B5044675
:100B10000C480E46044200D124B940F2AD410AA06F
:100B200000F0DFFC174D4EB1012E04D040F2AE4173
:100B300005A000F0D6FC2868204301E02868A04307
:100B4000286070BD003601C94C69627261726965C6
:100B5000735C53544D3332463478785F5374645029
:100B600065726970685F4472697665725C737263FE
:100B70005C73746D3332663478785F7263632E63AE
:100B800000000000403802400B48016841F00101BC
:100B90000160094A0021083211600268074B1A40BF
:100BA0000260031D064A1A60026822F48022026075
:100BB00001480C300160704700380240FFFFF6FE2C
:100BC0001030002470B5204A1168204C11F00C013F
:100BD00004D01F4E042903D0082903D004601BE071
:100BE000066019E01849091F0B68C3F380550B68AC
:100BF00003F03F0315B1B6FBF3F301E0B4FBF3F3ED
:100C00000C680968C4F388146343C1F30141491CAB
:100C10004900B3FBF1F1016011680F2303EA1111E0
:100C20000C4B5C5C0168E14041601468072505EAF3
:100C300094241C5D21FA04F48460126805EA52329F
:100C40009A5CD140C16070BD083802400024F400B5
:100C500040787D01140000202DE9F047DFF84C902A
:100C60000E4607464FF4806841464846FFF79AFE15
:100C700000240F4D0BE04021284600F073FA0028B5
:100C8000F9D0395D284600F0CDFB641CE4B2B442D3
:100C9000F1D34021284600F065FA0028F9D04146FA
:100CA0004846BDE8F047FFF721BE0000000C0240B7
:100CB000004800402DE9F04186B001210820FFF7EF
:100CC000E7FE01218804FFF721FFDFF89C8007225F
:100CD00008214046FFF7D8FC072209214046FFF7CC
:100CE000D3FC4FF44070009002208DF804000326DE
:100CF0008DF8056000248DF8064001258DF8075019
:100D000069464046FFF7FCFB8DF804508DF80560FE
:100D1000AF028DF8064000978DF8075069464046AF
:100D2000FFF7EEFB4FF46140ADF80C400290ADF8D8
:100D30000E40ADF81040ADF814400C200B4CADF84F
:100D4000120002A9204600F083FA0121204600F09B
:100D5000B3F94021204600F04BF939464046FFF7F1
:100D6000C5FD06B0BDE8F081000C0240004800401F
:100D70007CB5044601210A20FFF78AFE00208DF889
:100D8000040003208DF8050002208DF807000820DC
:100D90000E4D009069462846FFF7B2FB80200C4EAE
:100DA000009069463046FFF7ABFB40212846FFF72D
:100DB00015FD207008212846FFF710FD6070802186
:100DC0003046FFF70BFDA0707CBD00000004024020
:100DD000000C02401C49884201D2002070471B4988
:100DE000884201D2082070471949884201D2102058
:100DF00070471849884201D2182070471649884226
:100E000001D2202070471549884201D2282070471E
:100E10001349884201D2302070471249884201D2DA
:100E2000382070471049884201D2402070470F494E
:100E3000884201D2482070470D49884201D2502093
:100E400070475820704700000040000800800008EC
:100E500000C00008000001080000020800000408AB
:100E6000000006080000080800000A0800000C083E
:100E700000000E0810B5002303E010C841F823401D
:100E80005B1C9342F9D310BD10B5002304E000BFF2
:100E900010F8014BCC545B1C9342F9D310BDF8B54C
:100EA0000446002016460D460090FFF707FB002081
:100EB000FFF798F904EB8600009008E020462968C7
:100EC000FFF7ACFA082804D1241D00982D1D844298
:100ED000F4D30120FFF786F9BDE8F840FFF748BAE0
:100EE0000CB500202749019000900A6842F4803236
:100EF0000A604FF4A0630A6802F400320092019A7B
:100F0000521C0192009A12B9019A9A42F3D10A68CE
:100F1000920334D5012000901A484030026842F014
:100F2000805202601848026842F48042026015480C
:100F3000083002680260026842F4004202600268FF
:100F400042F4A0520260031F104A1A600A6842F07D
:100F500080720A600A689201FCD50D4A40F2056170
:100F60001160016821F003010160016841F0020194
:100F700001600168C1F381010229FAD10CBD009022
:100F80000CBD0000003802400070004019544007BA
:100F9000003C0240124810B5016841F47001016044
:100FA0001048016841F0010101600E4A0021083239
:100FB000116002680C4B1A400260031D0B4A1A6054
:100FC000026822F48022026006480C300160FFF7BC
:100FD00087FF03494FF000608039086010BD0000B2
:100FE00088ED00E000380240FFFFF6FE10300024DC
:100FF0002DE9F0471B4E1C4FDFF87080DFF8709032
:101000000D460446B04210D0BC420ED044450CD030
:101010001848844209D01848844206D04C4504D070
:1010200040F22C5115A000F05CFA35F4587000D154
:1010300025B940F22D5111A000F053FAA8050CD5A6
:10104000B4420AD0BC4208D0444506D04C4504D036
:1010500040F2325109A000F044FAE8432080BDE894
:10106000F0870000001001400044004000480040AC
:1010700000140140004C0040005000404C69627276
:1010800061726965735C53544D3332463478785FCE
:101090005374645065726970685F447269766572F2
:1010A0005C7372635C73746D3332663478785F7529
:1010B000736172742E63000070B5044614480D46C7
:1010C000844213D01348844210D0134884420DD078
:1010D000124884420AD01248844207D01148844200
:1010E00004D040F29B1110A000F0FBF955B1012D86
:1010F00004D04FF4CE710CA000F0F3F9A08940F4B5
:10110000005002E0A08920F40050A08170BD0000D2
:10111000001001400044004000480040004C0040E6
:1011200000500040001401404C69627261726965B0
:10113000735C53544D3332463478785F5374645043
:1011400065726970685F4472697665725C73726318
:101150005C73746D3332663478785F757361727462
:101160002E6300002DE9F047244F0026DFF8908021
:10117000DFF89090DFF890A00C460546B84210D0FA
:1011800045450ED04D450CD02048854209D0204819
:10119000854206D0554504D040F2FC411DA000F028
:1011A000A0F9012C23D0802C21D0402C1FD0202C42
:1011B0001DD0102C1BD0B4F5807F18D0B4F5007F63
:1011C00008D0082C13D0042C11D0022C0FD040F2E0
:1011D000FD4109E0BD420AD0454508D04D4506D045
:1011E000554504D040F202510AA000F07AF928884F
:1011F000204200D001263046BDE8F08700100140B3
:10120000004400400048004000140140004C0040F1
:10121000005000404C69627261726965735C53549E
:101220004D3332463478785F537464506572697018
:10123000685F4472697665725C7372635C73746D27
:101240003332663478785F75736172742E63000090
:101250002DE9FF475D4EDFF87881DFF878915E4F2A
:101260000D460446B0420FD044450DD04C450BD03E
:101270005A48844208D05A48844205D0BC4203D020
:10128000EB2158A000F02DF928686549401E8842DE
:1012900003D3EC2153A000F024F9A8884FF4805A1E
:1012A00028B1504503D0ED214EA000F01AF9E8888E
:1012B00058B1504509D0B0F5005F06D0B0F5405F99
:1012C00003D0EE2147A000F00CF9288948B1B0F511
:1012D000806F06D0B0F5C06F03D0EF2141A000F0C1
:1012E00000F9688930F00C0100D118B9F0213DA057
:1012F00000F0F7F8A889D0B1B0F5807F0BD0B0F539
:10130000007F08D0B0F5407F05D0F12135A000F076
:10131000E8F8A88958B1B44209D0444507D04C45F3
:1013200005D0BC4203D0F6212EA000F0DAF8208AC6
:1013300020F44051E88808432082A18941F20C60E2
:101340008143A8882A8910436A890A431043A081EF
:10135000A08A20F44071A8890843A0826846FFF75C
:1013600031FCB44201D0BC4201D1039800E00298A4
:10137000A189090400EBC00101EB0010296801D527
:10138000490000E08900B0FBF1F06422B0FBF2F10B
:1013900009010B096FF018056B4300EB8300A3896B
:1013A0001D044FF0320306D503EBC000B0FBF2F092
:1013B00000F0070005E003EB0010B0FBF2F000F0D6
:1013C0000F0008432081BDE8FF87000000100140A6
:1013D000004400400048004000140140004C004020
:1013E000005000404C69627261726965735C5354CD
:1013F0004D3332463478785F537464506572697047
:10140000685F4472697665725C7372635C73746D55
:101410003332663478785F75736172742E630000BE
:10142000E070720070B5044611480D46844213D036
:101430001048844210D0104884420DD00F48844296
:101440000AD00F48844207D00E48844204D040F2AC
:101450001D210DA000F045F8B5F5007F04D340F242
:101460001E2109A000F03DF8C5F30800A08070BD62
:10147000001001400044004000480040004C004083
:1014800000500040001401404C696272617269654D
:10149000735C53544D3332463478785F53746450E0
:1014A00065726970685F4472697665725C737263B5
:1014B0005C73746D3332663478785F7573617274FF
:1014C0002E63000002E008C8121F08C1002AFAD1EA
:1014D00070477047002001E001C1121F002AFBD1B4
:1014E0007047FEE72DE9F0410D464FF0FF37064605
:1014F0004FF480684446A54200D82C462D1B224656
:1015000008493046FFF7C0FC2644224605493846C4
:1015100000F07CF80746002DECD1002800D0012017
:10152000BDE8F0812404002008B5002000900848A0
:1015300001226946FFF79EFC009931B1481C04D096
:101540000348001DFFF7CEFF08BD012008BD0000C5
:1015500000000A082DE9F04700252C46FEF7AEFFF3
:101560000020FEF73FFE154E154FDFF85880DFF8DC
:101570005890DFF858A0052D0DD2DFE805F00305DF
:1015800007090B00344606E03C4604E0444602E00E
:101590004C4600E054462046FFF71CFC0221FEF7B3
:1015A00053FE082802D16D1C052DE4DB0120FEF757
:1015B00019FEBDE8F047FEF7DBBE00000080000822
:1015C00000C0000800000108000002080000040834
:1015D00070B500240C4DFEF771FF0020FEF702FEEF
:1015E0002846FFF7F7FB0221FEF72EFE082804D15C
:1015F000641C05F50035032CF2DB0120FEF7F2FD3B
:10160000BDE87040FEF7B4BE00000A0830B5002304
:10161000064C07E0CD5C4540EDB25B1C54F825500C
:1016200085EA10209342F5D330BD00007C170008F6
:101630002DE9FC412F4E00252D4C01953461FFF71B
:10164000A3FAFFF737FB01A8FFF792FB9DF805000F
:101650009DF80610400040EA81009DF80410084300
:10166000072804D1142124A0FFF7F6FA3461284892
:10167000012269460095FFF7FDFB009830B1401C40
:1016800004D0FFF751FF30B1FFF7A2FFFFF7E6F9F3
:101690000020BDE8FC811E4D2D1DFFF75BFF4FF4C0
:1016A0008067BE100098B84212D9324619492846C0
:1016B000FFF7E0FB324617492046FFF7F0FB0098A2
:1016C00004F58064A0F5806005F580650090E9E789
:1016D000024610492846FFF7D7FB0E492046009ADC
:1016E00000F02AF8E1B20CA0FFF7B6FACCE7000050
:1016F000008000080000002054686520504342200C
:1017000076657273696F6EA3BB370D0A0000000027
:1017100000000A08240000207265636F766572205D
:101720006461746120736563746F72206973206FE4
:101730006B21200D0A00000070B515460C4606000E
:101740001AD0002C18D0002D16D0FEF7B7FE0020BE
:10175000FEF748FD21783046FEF712FE082804D136
:10176000641C6D1E06F10106F4D10120FEF73AFD5E
:10177000BDE87040FEF7FCBD70BD00000000000039
:10178000963007772C610EEEBA51099919C46D078E
:101790008FF46A7035A563E9A395649E3288DB0EE9
:1017A000A4B8DC791EE9D5E088D9D2972B4CB609CC
:1017B000BD7CB17E072DB8E7911DBF906410B71DA9
:1017C000F220B06A4871B9F3DE41BE847DD4DA1AE2
:1017D000EBE4DD6D51B5D4F4C785D38356986C1313
:1017E000C0A86B647AF962FDECC9658A4F5C01148C
:1017F000D96C0663633D0FFAF50D088DC8206E3B6A
:101800005E10694CE44160D5727167A2D1E4033C7B
:1018100047D4044BFD850DD26BB50AA5FAA8B535A2
:101820006C98B242D6C9BBDB40F9BCACE36CD83291
:10183000755CDF45CF0DD6DC593DD1ABAC30D92638
:101840003A00DE518051D7C81661D0BFB5F4B4213B
:1018500023C4B3569995BACF0FA5BDB89EB8022838
:101860000888055FB2D90CC624E90BB1877C6F2FBD
:10187000114C6858AB1D61C13D2D66B69041DC76B8
:101880000671DB01BC20D2982A10D5EF8985B17191
:101890001FB5B606A5E4BF9F33D4B8E8A2C9077840
:1018A00034F9000F8EA8099618980EE1BB0D6A7FD7
:1018B0002D3D6D08976C6491015C63E6F4516B6B90
:1018C00062616C1CD83065854E0062F2ED95066C45
:1018D0007BA5011BC1F4088257C40FF5C6D9B065BA
:1018E00050E9B712EAB8BE8B7C88B9FCDF1DDD6217
:1018F000492DDA15F37CD38C654CD4FB5861B24D7D
:10190000CE51B53A7400BCA3E230BBD441A5DF4A46
:10191000D795D83D6DC4D1A4FBF4D6D36AE9694309
:10192000FCD96E34468867ADD0B860DA732D0444B4
:10193000E51D03335F4C0AAAC97C0DDD3C710550DF
:10194000AA41022710100BBE86200CC925B5685786
:10195000B3856F2009D466B99FE461CE0EF9DE5ECF
:1019600098C9D9292298D0B0B4A8D7C7173DB35980
:10197000810DB42E3B5CBDB7AD6CBAC02083B8ED11
:10198000B6B3BF9A0CE2B6039AD2B1743947D5EA1E
:10199000AF77D29D1526DB048316DC73120B63E34D
:1019A000843B64943E6A6D0DA85A6A7A0BCF0EE4AC
:1019B0009DFF099327AE000AB19E077D44930FF067
:1019C000D2A3088768F2011EFEC206695D5762F75E
:1019D000CB67658071366C19E7066B6E761BD4FE9B
:1019E000E02BD3895A7ADA10CC4ADD676FDFB9F978
:1019F000F9EFBE8E43BEB717D58EB060E8A3D6D63A
:101A00007E93D1A1C4C2D83852F2DF4FF167BBD167
:101A10006757BCA6DD06B53F4B36B248DA2B0DD86A
:101A20004C1B0AAFF64A0336607A0441C3EF60DF0D
:101A300055DF67A8EF8E6E3179BE69468CB361CBF6
:101A40001A8366BCA0D26F2536E2685295770CCC1B
:101A500003470BBBB91602222F260555BE3BBAC55C
:101A6000280BBDB2925AB42B046AB35CA7FFD7C24D
:101A700031CFD0B58B9ED92C1DAEDE5BB0C2649B3E
:101A800026F263EC9CA36A750A936D02A906099C71
:101A90003F360EEB8567077213570005824ABF95E4
:101AA000147AB8E2AE2BB17B381BB60C9B8ED29267
:101AB0000DBED5E5B7EFDC7C21DFDB0BD4D2D386BE
:101AC00042E2D4F1F8B3DD686E83DA1FCD16BE8131
:101AD0005B26B9F6E177B06F7747B718E65A088802
:101AE000706A0FFFCA3B06665C0B0111FF9E658F93
:101AF00069AE62F8D3FF6B6145CF6C1678E20AA03D
:101B0000EED20DD75483044EC2B30339612667A7C2
:101B1000F71660D04D476949DB776E3E4A6AD1AE11
:101B2000DC5AD6D9660BDF40F03BD83753AEBCA9A0
:101B3000C59EBBDE7FCFB247E9FFB5301CF2BDBD0D
:101B40008AC2BACA3093B353A6A3B4240536D0BA16
:101B50009306D7CD2957DE54BF67D9232E7A66B3B3
:101B6000B84A61C4021B685D942B6F2A37BE0BB460
:101B7000A18E0CC31BDF055A8DEF022D9C1B0008A4
:101B80000000002024000000C4140008C01B00084E
:101B900024000020040C0000D41400080000000001
:101BA0000000000000000000000000000000000035
:101BB00000000000010203040102030406070809F3
:040000050800018965
:00000001FF
